:100000000C942A000C9434000C9434000C943400AA
:100010000C9434000C9434000C9434000C94340090
:100020000C9434000C9434000C9434000C94340080
:100030000C9434000C9434000C9434000C94340070
:100040000C9434000C9434000C9434000C94340060
:100050000C94340011241FBECFE5D8E0DEBFCDBF25
:100060000E943C000C9453000C94000087B3806BFA
:1000700087BBBE98C49808958FEF8ABB0E94360054
:1000800081E58DB988E48FB9779BFECF8FB18BBBAB
:1000900080E090E0089581E58DB908958FB9779B50
:0A00A000FECF8FB10895F894FFCF52
:00000001FF
